:020000040800F2
:1000000000800120E11B0008451B0008471B000879
:10001000491B00084B1B00084D1B00080000000096
:100020000000000000000000000000004F1B00085E
:10003000511B000800000000531B0008551B00085E
:10004000311C0008311C0008311C0008311C00085C
:10005000311C0008311C0008311C0008311C00084C
:10006000311C0008311C0008311C0008311C00083C
:10007000311C0008311C0008311C0008311C00082C
:10008000311C0008311C0008311C00080000000071
:10009000000000000000000000000000311C00080B
:1000A000311C0008651B00087D1B0008311C00087E
:1000B000311C0008311C0008311C0008311C0008EC
:1000C000311C0008311C0008311C0008311C0008DC
:1000D000311C0008311C0008311C00080000000021
:1000E000311C0008311C0008311C00080000000011
:1000F000000000000000000000000000311C0008AB
:1001000000000000311C0008311C0008311C0008F0
:1001100000000000000000000000000000000000DF
:10012000311C0008311C0008311C0008311C00087B
:10013000311C00080000000000000000000000006A
:10014000000000000000000000000000311C00085A
:10015000311C0008311C0008311C0008311C00084B
:10016000311C0008311C00080000000000000000E5
:10017000000000000000000000000000000000007F
:1001800000000000311C000800000000000000001A
:04019000311C000816
:1001940010B5054C237833B9044B13B10448AFF3BD
:1001A40000800123237010BD100000200000000017
:1001B4007C1C000808B5034B1BB103490348AFF38B
:1001C400008008BD00000000140000207C1C000812
:1001D40053B94AB9002908BF00281CBF4FF0FF31AA
:1001E4004FF0FF3000F07AB9ADF1080C6DE904CEA0
:1001F40000F006F8DDF804E0DDE9022304B07047FE
:100204002DE9F0478C460D460446089E002B51D13B
:100214008A4217466DD9B2FA82FEBEF1000F0BD0A6
:10022400CEF1200C01FA0EF520FA0CFC02FA0EF7BE
:100234004CEA050C00FA0EF44FEA174A250CBCFBF5
:10024400FAF81FFA87F90AFB18CC45EA0C4508FBB3
:1002540009F3AB420AD9ED1908F1FF3280F023818A
:10026400AB4240F22081A8F102083D44ED1AA4B249
:10027400B5FBFAF00AFB105544EA054400FB09F902
:10028400A14509D9E41900F1FF3380F00A81A145A1
:1002940040F2078102383C44A4EB090440EA0840D8
:1002A4000021002E61D024FA0EF400233460736020
:1002B400BDE8F0878B4207D9002E54D0002186E890
:1002C40021000846BDE8F087B3FA83F1002940F025
:1002D4008E80AB4202D3824200F2FA80841A65EB2C
:1002E40003050120AC46002E3FD086E81010BDE87F
:1002F400F08712B90127B7FBF2F7B7FA87FEBEF110
:10030400000F34D1EB1B3A0C1FFA87FC0121B3FB1D
:10031400F2F8250C02FB183345EA03450CFB08F3FD
:10032400AB4207D9ED1908F1FF3002D2AB4200F21B
:10033400D1808046ED1AA3B2B5FBF2F002FB105552
:1003440043EA05440CFB00FCA44507D9E41900F179
:10035400FF3302D2A44500F2B8801846A4EB0C0483
:1003640040EA08409DE731463046BDE8F087CEF1CB
:10037400200405FA0EF307FA0EF720FA04F83A0CF3
:1003840025FA04F448EA0308B4FBF2F14FEA1845ED
:1003940002FB11441FFA87FC45EA044501FB0CF3F8
:1003A400AB4200FA0EF409D9ED1901F1FF3080F0E7
:1003B4008A80AB4240F2878002393D44EB1A1FFA2F
:1003C40088F5B3FBF2F002FB103345EA034500FB6A
:1003D4000CF3AB4207D9ED1900F1FF386FD2AB42F1
:1003E4006DD902383D44EB1A40EA01418FE7C1F16F
:1003F400200722FA07F88B4005FA01F448EA0303C0
:1004040020FA07FE4FEA134CFD404EEA040EB5FBFA
:10041400FCF94FEA1E440CFB19551FFA83F844EA11
:10042400054509FB08F4AC4202FA01F200FA01FAAC
:1004340008D9ED1809F1FF3043D2AC4241D9A9F1F2
:1004440002091D442D1B1FFA8EFEB5FBFCF00CFBAC
:1004540010554EEA054400FB08F8A04507D9E418F6
:1004640000F1FF3529D2A04527D902381C4440EABF
:100474000940A4EB0804A0FB02894C45C6464D463E
:1004840015D312D056B1BAEB0E0364EB050404FA8B
:1004940007F7CB401F43CC40376074600021BDE8B0
:1004A400F0871846F8E69046E0E6C245EAD2B8EB93
:1004B400020E69EB03050138E4E72846D7E7404616
:1004C40091E78146BEE7014678E702383C4445E7B8
:1004D400084608E7A8F102083D442BE7704700BF2F
:1004E40038B50E4A0E4B054618784FF47A73B3FBB1
:1004F400F0F31068B0FBF3F000F0E2F9044658B9E9
:100504000F2D09D8024629464FF0FF3000F098F924
:10051400044B20461D6038BD012038BD0C0000206E
:10052400000000200400002008B50B4B1A6842F4B8
:1005340000721A601A6842F480621A601A6842F4FF
:1005440080721A60032000F069F90020FFF7C8FFE9
:1005540001F030FA002008BD003C0240034A044B7D
:1005640011681B780B441360704700BF34000020EF
:1005740000000020014B1868704700BF34000020C1
:1005840038B50446FFF7F6FF631C1CBF054B1B7808
:10059400054618BFE418FFF7EDFF401B8442FAD864
:1005A40038BD00BF0000002010B50446002800F04C
:1005B4009980036C23B9436480F83C3001F042FA1B
:1005C400236CDB0600F18C80236C23F4885323F026
:1005D400020343F002032364434B5A6822F440327B
:1005E4005A605A6861680A435A60236821695A68E4
:1005F40022F480725A605A6842EA01225A605A68A8
:10060400A16822F040725A605A680A435A609A6894
:10061400E16822F400629A609A680A439A60334956
:10062400A26A8A4250D0996821F0706199609968F1
:100634000A439A609A68E16A22F040529A609A6882
:100644000A439A609A68A16922F002029A609A6841
:1006540042EA41029A60226A002A3DD05A68616ADD
:1006640042F400625A605A6822F460425A605A683E
:10067400013942EA41325A60DA6AE16922F47002CD
:10068400DA62DA6A013942EA0152DA629A68216B63
:1006940022F400729A609A6842EA41229A609A6847
:1006A400616922F480629A609A68002042EA812299
:1006B4009A606064236C23F0030343F00103236412
:1006C400002384F83C3010BD9A6822F070629A606E
:1006D4009A6822F04052B4E75A6822F40062CAE7EA
:1006E4000120EDE7012010BD002301400100000FAF
:1006F400F7B50023019390F83C30012B00F0838080
:100704000D6804688A680123092D80F83C30AEB274
:100714002AD906EB4603E7681E3B4FF0070E0EFA94
:1007240003FE27EA0E07E760E76802FA03F33B4398
:10073400E3604A68062A4FEA820325D81344676BAC
:10074400591F1F238B4027EA03036363626B06FA76
:1007540001F1114361632D4B9C4234D0002380F896
:100764003C30184603B0F0BD276905EB45034FF054
:10077400070E0EFA03FE27EA0E072761276902FA1D
:1007840003F33B432361D4E70C2A0ED81344216BB3
:10079400A3F123021F23934021EA03032363236B62
:1007A40006FA02F21A432263D5E71344E16A413B95
:1007B4001F229A4021EA0202E262E26A06FA03F187
:1007C4001143E162C7E7122D04D1114A536843F47F
:1007D40080035360A5F11003012BBFD80C4A536862
:1007E400102D43F400035360B8D10A4B0A4A1B6826
:1007F400B3FBF2F20A2353430193019B002BADD0C8
:10080400019B013BF8E70220ACE700BF0020014058
:10081400002301400C00002040420F00074AD36827
:1008240023F4E0631B041B0C43F0BF63000243F496
:10083400003300F4E0600343D360704700ED00E050
:10084400174B30B5DC68C4F30224C4F10703251D3B
:10085400042B28BF0423062D4FF0010505FA03F3EA
:1008640003F1FF338CBF033C00241940A14005FA77
:1008740004F4013C2240002842EA01024FEA021239
:10088400AFBF00F1604000F00F00064BD2B2A5BF2D
:1008940000F56140D2B21A5480F8002330BD00BF85
:1008A40000ED00E014ED00E04209012300F01F0018
:1008B40003FA00F0014B43F82200704700E100E026
:1008C4000138B0F1807F0AD2064B074A5860F02104
:1008D40082F823100020072298601A6070470120D4
:1008E400704700BF10E000E000ED00E0044B1A6820
:1008F40004280CBF42F0040222F004021A6070477C
:1009040010E000E0704708B5FFF7FCFF08BD0000E9
:100914002DE9F04F85B00B68DFF89C81644A0193A0
:100924004FF001090023019C09FA03F707EA0406C2
:10093400B74240F0AD804C6824F0100ABAF1020FBF
:1009440016D14FEAD30C00EB8C0C03F0070BDCF848
:1009540020504FEA8B0B4FF00F0E0EFA0BFE25EAD8
:100964000E0E0D6905FA0BF545EA0E05CCF820507C
:100974004FEA430C0325D0F800B005FA0CF5ED431B
:1009840004F0030E0BEA050B0EFA0CFE0AF1FF3A13
:100994004EEA0B0EBAF1010F0095C0F800E015D82D
:1009A400D0F808E005EA0E0ECD6805FA0CFA4AEA1A
:1009B4000E0EC0F808E0D0F804E02EEA0707C4F3EE
:1009C400001E0EFA03FE4EEA07074760C768009D43
:1009D4003D408F6807FA0CF73D43C560E50057D5E5
:1009E4004FF0000BCDF80CB0D8F84470314D47F4FB
:1009F4008047C8F84470D8F8447007F480470397D8
:100A0400039F23F0030707F1804707F59C3703F0A2
:100A1400030CD7F808A04FEA8C0C4FF00F0E0EFA17
:100A24000CFEA8422AEA0E0E39D005F58065A842CC
:100A340037D005F58065A84235D005F58065A84214
:100A440033D005F58065A84214BF0725042505FAAF
:100A54000CF545EA0E05BD601568F74314F4803FB4
:100A64000CBF3D4035431560556814F4003F0CBF7E
:100A74003D4035435560956814F4801F0CBF3D40DC
:100A840035439560D568A40254BF3D403543D560D5
:100A94000133102B7FF447AF05B0BDE8F08F5D46FE
:100AA400D5E70125D3E70225D1E70325CFE700BF2A
:100AB400003C014000000240003802400AB181615C
:100AC40070470904FBE743695940416170470000DE
:100AD4002DE9F341044618B9012002B0BDE8F081C4
:100AE4000368DD0710D42368980758D423681A07CD
:100AF40000F19A8023685B0700F1B880A269002A9C
:100B040040F019810020E8E7A64B9A6802F00C0235
:100B1400042A07D09A6802F00C02082A0AD15B68FA
:100B2400590207D59F4B1B689A03DCD56368002BD9
:100B3400D9D1D1E763689B4DB3F5803F11D12B68C0
:100B440043F480332B60FFF715FD964D06462B6862
:100B54009B03C8D4FFF70EFD801B6428F7D903203C
:100B6400BBE7B3F5A02F04D12B6843F480232B609B
:100B7400E5E72A6822F480322A602A6822F4802277
:100B84002A60002BDFD1FFF7F5FC06462B689F0394
:100B9400A9D5FFF7EFFC801B6428F7D9DFE7814B69
:100BA4009A6812F00C0F07D09A6802F00C02082A17
:100BB40011D15B685E020ED47A4B1A68950702D590
:100BC400E268012A88D11A68216922F0F80242EA0F
:100BD400C1021A608AE7E268734BB2B101221A605B
:100BE400FFF7C8FC6F4D06462B68980707D52B689E
:100BF400226923F0F80343EAC2032B6076E7FFF788
:100C0400B9FC801B0228EFD9A9E71A60FFF7B2FCF0
:100C1400644D06462B6899077FF568AFFFF7AAFC79
:100C2400801B0228F6D99AE76269604B7AB10122E7
:100C34001A60FFF79FFC5B4D06466B6F9F073FF5FD
:100C440059AFFFF797FC801B0228F6D987E71A6093
:100C5400FFF790FC534D06466B6F98077FF54AAF3C
:100C6400FFF788FC801B0228F6D978E74D4B1A6CF5
:100C740012F0805228D101921A6C42F080521A6408
:100C84001B6C03F080530193019B0126484D2B6894
:100C9400D9051BD5A368434D012B27D12B6F43F0F6
:100CA40001032B67FFF766FC3E4D074641F2883887
:100CB4002B6F9B0739D5002E3FF420AF394A136CB4
:100CC40023F08053136419E70026DFE72B6843F40D
:100CD40080732B60FFF74EFC07462B68DA05D9D4E6
:100CE400FFF748FCC01B0228F7D938E7052B04D1CD
:100CF4002B6F43F004032B67D0E72A6F22F0010225
:100D04002A672A6F22F004022A67002BCAD1FFF750
:100D140031FC41F2883807462B6F9807CBD5FFF793
:100D240029FCC01B4045F7D919E7FFF723FCC01B7A
:100D34004045BDD913E71B4DAB6803F00C03082BEA
:100D44003FF4CAAE1B4E0023022A336034D1FFF7AE
:100D540011FC07462B6899011ED4226AE3691343E8
:100D6400626A43EA8213E26A43EA0263A26A0D4CAE
:100D74005208013A43EA02436B6001233360FFF7F0
:100D8400F9FB054623689A013FF5BCAEFFF7F2FB79
:100D9400401B0228F6D9E2E6FFF7ECFBC01B022851
:100DA400D8D9DCE60038024000004742800E4742B2
:100DB4000070004060004742FFF7DCFB04462B68EC
:100DC4009B017FF59FAEFFF7D5FB001B0228F6D9E8
:100DD400C5E600BF134908B58B6803F00C03042B68
:100DE40003D0082B03D0104808BD104808BD4A683A
:100DF4004B68496813F4800314BF0C480A48C1F3D4
:100E0400881118BF002302F03F02A1FB0001FFF785
:100E1400DFF9044B5B68C3F3014301335B00B0FBB0
:100E2400F3F008BD003802400024F40000127A00F8
:100E34002DE9F0410D46044610B90120BDE8F081CA
:100E4400444B1A6802F00F028A4228D321688F07A4
:100E54002DD4C80740D43F4B1A6802F00F029542C4
:100E640066D3226851076CD4130707D53A4A21691F
:100E7400936823F4604343EAC1039360FFF7AAFF36
:100E8400354B364A9B68C3F30313D35CD840344BC9
:100E940018600020FFF724FB0020BDE8F081CAB2EF
:100EA4001A701B6803F00F039942C6D1CEE72A4B90
:100EB40011F0040F1EBF9A6842F4E0529A600E07C4
:100EC40042BF9A6842F460429A609A68A06822F02D
:100ED400F00202439A60BCE762681F4B012A1DD1ED
:100EE4001B6813F4003FA8D01B4EB36823F0030320
:100EF4001343B360FFF73EFB41F288380746B368FB
:100F0400626803F00C03B3EB820FA4D0FFF732FB4B
:100F1400C01B4045F3D90320BDE8F081911E01298F
:100F24001B6802D813F0007FDDE713F0020FDAE745
:100F3400EAB21A701B6803F00F039D427FF47DAF81
:100F44008FE70549E0688B6823F4E05303438B6023
:100F54008AE700BF003C0240003802409F1C0008A2
:100F64000C000020014B1868704700BF0C000020E3
:100F7400044B054A9B68C3F38223D35C034A10687D
:100F8400D840704700380240AF1C00080C00002015
:100F9400044B054A9B68C3F34233D35C034A10688D
:100FA400D840704700380240AF1C00080C000020F5
:100FB4000368DA6842F00102DA601A6842F001025A
:100FC4001A60002070470368DA6822F00102DA60D0
:100FD400196A41F21112114208D1196A40F24442CD
:100FE400114202BF1A6822F001021A600020704701
:100FF4007047704770477047704703681A699107D4
:1010040010B504460ED5DA6892070BD56FF00202CC
:101014001A619B6901229B07027677D0FFF7EAFFEA
:101024000023237623681A69500710D5DA6851071C
:101034000DD56FF004021A619B69022213F4407FFC
:101044002276204668D0FFF7D5FF00232376236855
:101054001A6912070FD5DA6810070CD56FF0080269
:101064001A61DB6904229907227620465AD0FFF7D9
:10107400C1FF0023237623681A69D20610D5DA68E3
:10108400D0060DD56FF010021A61DB69082213F443
:10109400407F227620464BD0FFF7ACFF0023237617
:1010A40023681A69D10708D5DA68D20705D56FF025
:1010B40001021A612046FFF79BFF23681A69100694
:1010C40008D5DA68110605D56FF080021A6120464A
:1010D40000F09DF823681A69520608D5DA685006AC
:1010E40005D56FF040021A612046FFF785FF23689B
:1010F4001A69910622D5DA6892061FD56FF020028C
:1011040020461A61BDE8104000F080B8FFF771FF77
:101114002046FFF770FF83E7FFF76BFF2046FFF7DA
:101124006AFF92E7FFF765FF2046FFF764FFA0E739
:10113400FFF75FFF2046FFF75EFFAFE710BD00003B
:10114400224A036890420ED0B0F1804F0BD0A2F532
:101154007C42904207D002F58062904203D002F5AF
:101164008062904219D14A6823F070031343174AEE
:10117400904204D1CA6823F44073134318E0B0F1D9
:10118400804FF7D0124A9042F4D002F58062904228
:10119400F0D002F580629042ECD00E4A9042E9D041
:1011A40002F580629042E5D002F580629042E1D07F
:1011B40003608B68C3620B688362044B984204BF6C
:1011C4000B69036301234361704700BF00000140C2
:1011D400000400400040014010B50446A0B190F85E
:1011E400393003F0FF021BB980F8382000F04CFCC2
:1011F400022384F839302068211DFFF7A1FF012361
:1012040084F83930002010BD012010BD70477047AC
:101214002DE9F0470668C2683369C16923F4405375
:1012240013433361044683680069F26803436069C9
:1012340022F41642034322F00C020B431343F360DF
:101244007369A26923F440731343B1F5004F7361CA
:101254007A4B7CD19E4203D003F580639E4244D1F5
:10126400FFF796FE192505FB00F360684FF064094B
:101274004000B3FBF0F3B3FBF9F34FEA0318FFF7B5
:1012840087FE636868435B00B0FBF3F7FFF780FEFB
:10129400636868435B00B0FBF3F3B3FBF9F309FB4A
:1012A4001373DB003233B3FBF9F35B0003F4F87719
:1012B400FFF76EFE626868435200B0FBF2FAFFF774
:1012C40067FE636868435B00B0FBF3F3B3FBF9F3B9
:1012D40009FB13A3DB003233B3FBF9F303F0070379
:1012E40043443B44B360BDE8F087FFF741FE192552
:1012F40005FB00F360684FF064094000B3FBF0F3B2
:10130400B3FBF9F34FEA0318FFF732FE636868434F
:101314005B00B0FBF3F7FFF72BFE636868435B00E9
:10132400B0FBF3F3B3FBF9F309FB1373DB003233C4
:10133400B3FBF9F35B0003F4F877FFF719FE626877
:1013440068435200B0FBF2FAFFF712FEB9E79E427F
:1013540002D03B4B9E4240D1FFF71AFE6768192525
:101364004FF0640905FB00F3BF00B3FBF7F3B3FBD5
:10137400F9F31F01FFF70CFE636868439B00B0FBA1
:10138400F3F8FFF705FE636868439B00B0FBF3F3D3
:10139400B3FBF9F309FB13831B013233B3FBF9F3FA
:1013A40003F0F008FFF7F4FD626868439200B0FBB5
:1013B400F2FAFFF7EDFD636868439B00B0FBF3F3BB
:1013C400B3FBF9F309FB13A31B013233B3FBF9F3AA
:1013D40003F00F0343EA080383E7FFF7C9FD6768D7
:1013E40019254FF0640905FB00F3BF00B3FBF7F3C5
:1013F400B3FBF9F31F01FFF7BBFD636868439B0070
:10140400B0FBF3F8FFF7B4FD636868439B00B0FBDF
:10141400F3F3B3FBF9F309FB13831B013233B3FB7F
:10142400F9F303F0F008FFF7A3FD62686843920044
:10143400B0FBF2FAFFF79CFDBDE700BF00100140CE
:101444000014014010B5044640B390F8393003F05D
:10145400FF021BB980F8382000F04CFB22682423DB
:1014640084F83930D36823F40053D3602046FFF75F
:10147400CFFE23681A6922F490421A615A6922F055
:101484002A025A61DA6842F40052DA60002020230A
:10149400E06384F8393084F83A3010BD012010BD7F
:1014A40010B504460748FFF783FD074B1968023C53
:1014B4001A68521AA242FBD30248BDE81040FFF753
:1014C40082BD00BF380000203000002010B5044663
:1014D4002820FFF7E5FFE18960680122FFF7EEFAB3
:1014E4002820FFF7DDFF6068E1890022FFF7E6FAB4
:1014F4002820BDE81040FFF7D3BF38B504460D4699
:10150400002281894068FFF7D9FA218A60680022A5
:10151400FFF7D4FAA3685A6922F0FF025A615A69A4
:10152400154320465D61FFF7D1FF2820BDE8384010
:10153400FFF7B6BFF8B50446BDF818609DF824005F
:10154400BDF820709DF828502382079BA281A360D8
:10155400616060706782E681A5700F20FFF710F864
:1015640038212046FFF7C9FF0520FFF709F8382185
:101574002046FFF7C2FF6420FFF792FF2046382180
:10158400FFF7BBFF20463821FFF7B7FF20460621AF
:10159400FFF7B3FF20460E21FFF7AFFF01212046DE
:1015A400FFF7ABFF0220FEF7EBFF20468021BDE8EA
:1015B400F840FFF7A2BF38B504460D4601228189E1
:1015C4004068FFF77BFA218A60680022FFF776FA09
:1015D400A3685A6922F0FF025A615A6915432046EA
:1015E4005D61FFF773FF2820BDE83840FFF758BF5F
:1015F40008B562F07F0242EA8111C9B2FFF77DFFAC
:101604002820BDE80840FFF74BBF08B5FFF7D3FF1C
:101614002820BDE80840FFF743BF38B505464C1EF7
:1016240014F8011F21B92820BDE83840FFF738BF5E
:101634002846FFF7EAFFF3E730B595B00022274BC1
:101644000192196C41F0805119641B6C244903F018
:1016540080530193019B02920B6823F4404343F4AB
:1016640000430B600B680F9203F440430293029B08
:1016740001230B9310230C9310934FF4A8730224AB
:1016840011930425072308A808940E941295139324
:10169400FFF71EFA00B1FEE70F23039305904FF402
:1016A40080530790214603A804940693FFF7C0FBD8
:1016B400044600B1FEE7FFF755FC4FF47A73B0FB24
:1016C400F3F0FFF7FDF82846FFF710F9224621460C
:1016D4004FF0FF30FFF7B4F815B030BD00380240CA
:1016E400007000402DE9F04F91B00024FEF71CFF7C
:1016F400FFF7A2FF9C4B07941A6B9C4F9C4E42F041
:1017040004021A631A6B02F004020792079A0894FF
:101714001A6B42F080021A631A6B02F0800208927C
:10172400089A09941A6B42F001021A631A6B02F0C8
:1017340001020992099A0A941A6B42F002021A638E
:101744001B6B03F002030A932246FF2138460A9BCF
:10175400FFF7B4F9224630218648FFF7AFF9224655
:1017640007218548FFF7AAF94FF400530B930BA9FF
:10177400824B0C93384601250D944FF0FF08FFF778
:10178400C7F80BA93846CDF82C800C950D940E940F
:10179400FFF7BEF810230B930BA9112375480C9384
:1017A4000D950E94FFF7B4F820230BA971480B9301
:1017B4000C950D940E944FF00709FFF7A9F86E48A5
:1017C400CDF82C900BA90C950D940E94FFF7A0F86E
:1017D4006B4BB46040F23F5C86E8081030464FF231
:1017E4002343F3603461FFF7F7FC00B1FEE7654B78
:1017F400654A1A60586098604F2218611846DA608A
:10180400FFF7EAFC00B1FEE7604C614BA0604FF4C7
:10181400403E84E80840A0612062E0625D4BE060E5
:10182400206320462561A362E5616561FEF7BCFE85
:1018340000B1FEE70B900BA920460C95CDF834902F
:10184400FEF756FF00B1FEE7534B544998604FF43E
:10185400E13283E80600D86018610C229861D861EF
:1018640018465A61FFF7EEFD00B1FEE73046FFF778
:101874009FFB4B4B40491B7804934A4B4A481B78C7
:10188400039304232A46CDF808800197009302238A
:10189400FFF750FE45494448434CFFF7BEFE444B16
:1018A40049F6EC221A6049F6ED2698460A272021CB
:1018B4003048FFF708F9D8F80050AE424FD04FF047
:1018C4003C0B0022B5FBFBF120460BFB115A012116
:1018D400FFF78EFE48F6A041B5FBF1F13031C9B2F5
:1018E4002046FFF792FE4FF46166B5FBF6F9B9FBAB
:1018F400F7F107FB11913031C9B22046FFF785FE9D
:101904003A212046FFF781FE06FB19564FF4167163
:10191400B6FBF1F13031C9B22046FFF776FEB6FBD3
:10192400FBF6B6FBF7F107FB11613031C9B2204673
:10193400FFF76BFE3A212046FFF767FEBAFBF7F587
:1019440005F13001C9B22046FFF75FFE07FB15A180
:101954003031C9B22046FFF758FED8F800500A20AB
:10196400FEF70EFE2E46A2E70038024000080240B1
:101974008800002000000240000402400000211002
:10198400004401403800002000480140C400002009
:10199400002001400100000F0C0100200044004021
:1019A400080000200900002074000020941C000896
:1019B4002C00002013B5224B002400945A6C42F4EE
:1019C40080425A645A6C02F480420092009A019454
:1019D4001A6C42F080521A641B6C03F0805301931A
:1019E4000720019BFEF71AFF224621466FF00B00E9
:1019F400FEF726FF224621466FF00A00FEF720FF7D
:101A0400224621466FF00900FEF71AFF22462146BE
:101A14006FF00400FEF714FF224621466FF0030026
:101A2400FEF70EFF224621466FF00100FEF708FF85
:101A3400224621464FF0FF30FEF702FF02B010BDF0
:101A4400003802407FB502680D4B9A4215D100213F
:101A540003F58C3300915A6C0A4842F480725A643C
:101A64005B6C039103F480730093009B0123019347
:101A740001A903230293FEF74BFF07B05DF804FBB3
:101A8400002001400000024007B50368164A934253
:101A940015D10022154B0092596C41F40031596460
:101AA4005B6C03F40033009319201146009BFEF78E
:101AB400C7FE1920FEF7F8FE03B05DF804FB0C4ADC
:101AC4009342F9D10022094B0192596C41F48021CF
:101AD40059645B6C03F4802301931A201146019B23
:101AE400FEF7AEFE1A20E5E700440140003802404C
:101AF400004801407FB502680E4B9A4217D100237B
:101B04000D4A0093116C0D4841F400311164126CBC
:101B1400039302F400320092009A04930C2201927F
:101B24000723022201A902920593FEF7F1FE07B0F2
:101B34005DF804FB0044004000380240000002400D
:101B44007047FEE7FEE7FEE7FEE770477047704721
:101B540008B5FEF703FDBDE80840FEF7D4BE00005B
:101B6400034A0448136801331360FFF746BA00BF01
:101B74002C00002088000020034A04481368013325
:101B84001360FFF73ABA00BF30000020380000208D
:101B94000F49D1F8883043F47003C1F888300D4BF5
:101BA4001A68002042F001021A6098601A6822F054
:101BB400847222F480321A60074A5A601A6822F446
:101BC40080221A60D8604FF000638B60704700BFBA
:101BD40000ED00E00038024010300024DFF834D07B
:101BE400002103E00C4B5B58435004310B480C4B71
:101BF40042189A42F6D30B4A02E0002342F8043B0F
:101C0400094B9A42F9D3FFF7C3FF00F011F8FFF72D
:101C140069FD704700800120C81C000800000020F6
:101C240010000020100000204C010020FEE70000FE
:101C340070B50D4E0D4CA41BA4100025A54209D16E
:101C44000B4E0C4C00F018F8A41BA4100025A54260
:101C540005D170BD56F8253098470135EEE756F8A2
:101C6400253098470135F2E7C01C0008C01C000865
:101C7400C01C0008C41C0008F8B500BFF8BC08BCB0
:101C84009E467047F8B500BFF8BC08BC9E46704736
:101C9400476F6464616721203A2900000000000056
:101CA4000000000102030406070809000000000107
:041CB4000203040023
:081CB8004CE5FF7F0100000074
:041CC000B90100085E
:041CC400950100087E
:101CC8000100000010000000100200000024F400D1
:0400000508001BE1F3
:00000001FF
