:020000040800F2
:100000000080012005300008512F0008532F000800
:10001000552F0008572F0008592F00080000000036
:100020000000000000000000000000005B2F00083E
:100030005D2F0008000000005F2F0008612F0008FE
:10004000553000085530000855300008553000087C
:10005000553000085530000855300008553000086C
:10006000553000085530000855300008553000085C
:10007000553000085530000855300008553000084C
:1000800055300008553000085530000800000000C9
:100090000000000000000000000000006D2F0008BC
:1000A00055300008812F00089D2F000855300008AA
:1000B000553000085530000855300008553000080C
:1000C00055300008553000085530000855300008FC
:1000D0005530000855300008553000080000000079
:1000E0005530000855300008553000080000000069
:1000F0000000000000000000000000005530000873
:100100000000000055300008553000085530000848
:1001100000000000000000000000000000000000DF
:10012000553000085530000855300008553000089B
:100130005530000800000000000000000000000032
:100140000000000000000000000000005530000822
:10015000553000085530000855300008553000086B
:100160005530000855300008000000000000000075
:10017000000000000000000000000000000000007F
:1001800000000000553000080000000000000000E2
:0401900055300008DE
:1001A00010B5054C237833B9044B13B10448AFF3B1
:1001B00000800123237010BD7C000020000000009F
:1001C000E83B000808B5034B1BB103490348AFF3F4
:1001D000008008BD0000000080000020E83B00080F
:1001E000034613F8012B002AFBD1181A0138704777
:1001F00001F0FF01102A2BDB10F0070F08D010F8D8
:10020000013B013A8B422DD010F0070F42B3F6D1DB
:10021000F0B441EA012141EA014122F007047FF0F4
:1002200000070023F0E80256083C85EA010586EA4B
:10023000010685FA47F5A3FA87F586FA47F6A5FA87
:1002400087F68EB9EED1F0BC01F0FF0102F0070293
:1002500032B110F8013B013A83EA010313B1F8D13E
:100260000020704701387047002D06BF354603381F
:10027000073815F0010F07D1013015F4807F02BF58
:10028000013015F4C03F0130F0BC0138704700BFA9
:1002900081F0004102E000BF83F0004330B54FEA37
:1002A00041044FEA430594EA050F08BF90EA020FA4
:1002B0001FBF54EA000C55EA020C7FEA645C7FEA37
:1002C000655C00F0E2804FEA5454D4EB5555B8BF5A
:1002D0006D420CDD2C4480EA020281EA030382EACB
:1002E000000083EA010180EA020281EA0303362D5D
:1002F00088BF30BD11F0004F4FEA01314FF4801C30
:100300004CEA113102D0404261EB410113F0004F41
:100310004FEA03334CEA133302D0524263EB4303F8
:1003200094EA050F00F0A780A4F10104D5F1200E96
:100330000DDB02FA0EFC22FA05F2801841F10001F1
:1003400003FA0EF2801843FA05F359410EE0A5F1C5
:1003500020050EF1200E012A03FA0EFC28BF4CF0F6
:10036000020C43FA05F3C01851EBE37101F00045AC
:1003700007D54FF0000EDCF1000C7EEB00006EEBB9
:100380000101B1F5801F1BD3B1F5001F0CD3490843
:100390005FEA30004FEA3C0C04F101044FEA44529A
:1003A00012F5800F80F09A80BCF1004F08BF5FEA21
:1003B000500C50F1000041EB045141EA050130BD01
:1003C0005FEA4C0C404141EB010111F4801FA4F1A4
:1003D0000104E9D191F0000F04BF01460020B1FAF9
:1003E00081F308BF2033A3F10B03B3F120020CDA31
:1003F0000C3208DD02F1140CC2F10C0201FA0CF00F
:1004000021FA02F10CE002F11402D8BFC2F1200C73
:1004100001FA02F120FA0CFCDCBF41EA0C01904029
:10042000E41AA2BF01EB0451294330BD6FEA040472
:100430001F3C1CDA0C340EDC04F11404C4F120025D
:1004400020FA04F001FA02F340EA030021FA04F36F
:1004500045EA030130BDC4F10C04C4F1200220FAC6
:1004600002F001FA04F340EA0300294630BD21FA04
:1004700004F0294630BD94F0000F83F4801306BFCA
:1004800081F480110134013D4EE77FEA645C18BFBE
:100490007FEA655C29D094EA050F08BF90EA020F55
:1004A00005D054EA000C04BF1946104630BD91EA4D
:1004B000030F1EBF0021002030BD5FEA545C05D150
:1004C0004000494128BF41F0004130BD14F580048F
:1004D0003CBF01F5801130BD01F0004545F0FE4103
:1004E00041F470014FF0000030BD7FEA645C1ABF38
:1004F000194610467FEA655C1CBF0B46024650EA6F
:10050000013406BF52EA033591EA030F41F400219A
:1005100030BD00BF90F0000F04BF0021704730B520
:100520004FF4806404F132044FF000054FF00001F5
:1005300050E700BF90F0000F04BF0021704730B5B6
:100540004FF4806404F1320410F0004548BF40428B
:100550004FF000013EE700BF42004FEAE2014FEAE0
:1005600031014FEA02701FBF12F07F4393F07F4FBB
:1005700081F06051704792F0000F14BF93F07F4FED
:10058000704730B54FF4607401F0004521F0004130
:1005900020E700BF50EA010208BF704730B54FF0B6
:1005A00000050AE050EA010208BF704730B511F0BB
:1005B000004502D5404261EB41014FF4806404F1F3
:1005C00032045FEA915C3FF4DCAE4FF003025FEA75
:1005D000DC0C18BF03325FEADC0C18BF033202EBFD
:1005E000DC02C2F1200300FA03FC20FA02F001FA57
:1005F00003FE40EA0E0021FA02F11444C1E600BFF6
:1006000070B54FF0FF0C4CF4E06C1CEA11541DBFA8
:100610001CEA135594EA0C0F95EA0C0F00F0DEF873
:100620002C4481EA030621EA4C5123EA4C5350EA58
:10063000013518BF52EA033541F4801143F48013A9
:1006400038D0A0FB02CE4FF00005E1FB02E506F03A
:100650000042E0FB03E54FF00006E1FB03569CF08F
:10066000000F18BF4EF0010EA4F1FF04B6F5007F95
:1006700064F5407404D25FEA4E0E6D4146EB060607
:1006800042EAC62141EA55514FEAC52040EA5E5090
:100690004FEACE2EB4F1FD0C88BFBCF5E06F1ED83A
:1006A000BEF1004F08BF5FEA500E50F1000041EB71
:1006B000045170BD06F0004646EA010140EA02001E
:1006C00081EA0301B4EB5C04C2BFD4EB0C0541EA40
:1006D000045170BD41F480114FF0000E013C00F355
:1006E000AB8014F1360FDEBF002001F0004170BD79
:1006F000C4F10004203C35DA0C341BDC04F1140492
:10070000C4F1200500FA05F320FA04F001FA05F21D
:1007100040EA020001F0004221F0004110EBD370EA
:1007200021FA04F642EB06015EEA430E08BF20EA16
:10073000D37070BDC4F10C04C4F1200500FA04F3B9
:1007400020FA05F001FA04F240EA020001F000414B
:1007500010EBD37041F100015EEA430E08BF20EABE
:10076000D37070BDC4F1200500FA05F24EEA020E06
:1007700020FA04F301FA05F243EA020321FA04F035
:1007800001F0004121FA04F220EA020000EBD370EC
:100790005EEA430E08BF20EAD37070BD94F0000FEC
:1007A0000FD101F00046400041EB010111F4801F20
:1007B00008BF013CF7D041EA060195F0000F18BFD1
:1007C000704703F00046520043EB030313F4801F0D
:1007D00008BF013DF7D043EA0603704794EA0C0FC7
:1007E0000CEA135518BF95EA0C0F0CD050EA4106DD
:1007F00018BF52EA4306D1D181EA030101F000415A
:100800004FF0000070BD50EA410606BF1046194681
:1008100052EA430619D094EA0C0F02D150EA01368D
:1008200013D195EA0C0F05D152EA03361CBF1046CE
:1008300019460AD181EA030101F0004141F0FE416D
:1008400041F470014FF0000070BD41F0FE4141F4F1
:10085000780170BD70B54FF0FF0C4CF4E06C1CEAF1
:1008600011541DBF1CEA135594EA0C0F95EA0C0FA6
:1008700000F0A7F8A4EB050481EA030E52EA033561
:100880004FEA013100F088804FEA03334FF0805582
:1008900045EA131343EA12634FEA022245EA1115AF
:1008A00045EA10654FEA00260EF000419D4208BF60
:1008B000964244F1FD0404F5407402D25B084FEA0D
:1008C0003202B61A65EB03055B084FEA32024FF4B9
:1008D00080104FF4002CB6EB020E75EB030E22BF16
:1008E000B61A754640EA0C005B084FEA3202B6EBD6
:1008F000020E75EB030E22BFB61A754640EA5C0085
:100900005B084FEA3202B6EB020E75EB030E22BF14
:10091000B61A754640EA9C005B084FEA3202B6EB15
:10092000020E75EB030E22BFB61A754640EADC00D4
:1009300055EA060E18D04FEA051545EA16754FEA36
:1009400006164FEAC30343EA52734FEAC2025FEA54
:100950001C1CC0D111F4801F0BD141EA00014FF0E3
:1009600000004FF0004CB6E711F4801F04BF0143B4
:100970000020B4F1FD0C88BFBCF5E06F3FF6AFAED0
:10098000B5EB030C04BFB6EB020C5FEA500C50F160
:10099000000041EB045170BD0EF0004E4EEA1131E3
:1009A00014EB5C04C2BFD4EB0C0541EA045170BDEA
:1009B00041F480114FF0000E013C90E645EA060E2E
:1009C0008DE60CEA135594EA0C0F08BF95EA0C0F5C
:1009D0003FF43BAF94EA0C0F0AD150EA01347FF4A4
:1009E00034AF95EA0C0F7FF425AF104619462CE77B
:1009F00095EA0C0F06D152EA03353FF4FDAE1046DE
:100A0000194622E750EA410618BF52EA43067FF42E
:100A1000C5AE50EA41047FF40DAF52EA43057FF4BE
:100A2000EBAE12E74FEA4102B2F1E04324BFB3F567
:100A3000001CDCF1FE5C0DD901F0004C4FEAC00255
:100A40004CEA5070B2F1004F40EB830008BF20F039
:100A50000100704711F0804F21D113F13872BCBFF3
:100A600001F00040704741F480114FEA5252C2F148
:100A70001802C2F1200C10FA0CF320FA02F018BF91
:100A800040F001004FEAC1234FEAD32303FA0CFCE4
:100A900040EA0C0023FA02F34FEA4303CCE77FEA73
:100AA000625307D150EA01331EBF4FF0FE4040F4BD
:100AB0004000704701F0004040F0FE4040F400006C
:100AC000704700BF53B94AB9002908BF00281CBFAE
:100AD0004FF0FF314FF0FF3000F07AB9ADF1080C64
:100AE0006DE904CE00F006F8DDF804E0DDE902234C
:100AF00004B070472DE9F0478C460D460446089E29
:100B0000002B51D18A4217466DD9B2FA82FEBEF14E
:100B1000000F0BD0CEF1200C01FA0EF520FA0CFCE0
:100B200002FA0EF74CEA050C00FA0EF44FEA174AE7
:100B3000250CBCFBFAF81FFA87F90AFB18CC45EA2A
:100B40000C4508FB09F3AB420AD9ED1908F1FF3255
:100B500080F02381AB4240F22081A8F102083D449D
:100B6000ED1AA4B2B5FBFAF00AFB105544EA0544AD
:100B700000FB09F9A14509D9E41900F1FF3380F020
:100B80000A81A14540F2078102383C44A4EB0904E4
:100B900040EA08400021002E61D024FA0EF4002320
:100BA00034607360BDE8F0878B4207D9002E54D0C3
:100BB000002186E821000846BDE8F087B3FA83F1FA
:100BC000002940F08E80AB4202D3824200F2FA80CC
:100BD000841A65EB03050120AC46002E3FD086E861
:100BE0001010BDE8F08712B90127B7FBF2F7B7FA8A
:100BF00087FEBEF1000F34D1EB1B3A0C1FFA87FCC5
:100C00000121B3FBF2F8250C02FB183345EA03453A
:100C10000CFB08F3AB4207D9ED1908F1FF3002D203
:100C2000AB4200F2D1808046ED1AA3B2B5FBF2F0E0
:100C300002FB105543EA05440CFB00FCA44507D910
:100C4000E41900F1FF3302D2A44500F2B88018463F
:100C5000A4EB0C0440EA08409DE731463046BDE86D
:100C6000F087CEF1200405FA0EF307FA0EF720FA0A
:100C700004F83A0C25FA04F448EA0308B4FBF2F14C
:100C80004FEA184502FB11441FFA87FC45EA044568
:100C900001FB0CF3AB4200FA0EF409D9ED1901F196
:100CA000FF3080F08A80AB4240F2878002393D44B9
:100CB000EB1A1FFA88F5B3FBF2F002FB103345EA9A
:100CC000034500FB0CF3AB4207D9ED1900F1FF38E7
:100CD0006FD2AB426DD902383D44EB1A40EA014174
:100CE0008FE7C1F1200722FA07F88B4005FA01F4DB
:100CF00048EA030320FA07FE4FEA134CFD404EEA90
:100D0000040EB5FBFCF94FEA1E440CFB19551FFA03
:100D100083F844EA054509FB08F4AC4202FA01F203
:100D200000FA01FA08D9ED1809F1FF3043D2AC42BC
:100D300041D9A9F102091D442D1B1FFA8EFEB5FBF6
:100D4000FCF00CFB10554EEA054400FB08F8A045EA
:100D500007D9E41800F1FF3529D2A04527D9023878
:100D60001C4440EA0940A4EB0804A0FB02894C455E
:100D7000C6464D4615D312D056B1BAEB0E0364EBFE
:100D8000050404FA07F7CB401F43CC40376074607A
:100D90000021BDE8F0871846F8E69046E0E6C24537
:100DA000EAD2B8EB020E69EB03050138E4E7284606
:100DB000D7E7404691E78146BEE7014678E702382B
:100DC0003C4445E7084608E7A8F102083D442BE704
:100DD000704700BF10B504460E4B18784FF47A7375
:100DE000B3FBF0F30C4A1068B0FBF3F000F02CFBFF
:100DF00068B90F2C01D9012010BD002221464FF007
:100E0000FF3000F0E3FA054B1C60002010BD01200C
:100E100010BD00BF000000201000002004000020D2
:100E200008B50B4B1A6842F400721A601A6842F453
:100E300080621A601A6842F480721A60032000F01F
:100E4000B3FA0020FFF7C6FF01F0B2FF002008BD93
:100E5000003C0240034A1168034B1B780B441360AB
:100E6000704700BFB000002000000020014B186850
:100E7000704700BFB000002038B50446FFF7F6FF0A
:100E80000546B4F1FF3F02D0044B1B781C44FFF72A
:100E9000EDFF401B8442FAD838BD00BF000000209F
:100EA000494B5A6822F440325A605A6841680A43F2
:100EB0005A600268536823F4807353600268536871
:100EC000016943EA012353600268536823F04073C9
:100ED00053600268536881680B43536002689368EB
:100EE00023F40063936002689368C1680B439360C6
:100EF000826A364B9A4249D00268936823F0706345
:100F0000936002689368816A0B43936002689368F8
:100F100023F04053936002689368C16A0B43936067
:100F20000268936823F00203936002689368816902
:100F300043EA41039360036A002B32D1026853688D
:100F400023F4006353600268D36A23F47003D3620E
:100F50000168CB6AC269013A43EA0253CB62026874
:100F6000936823F40073936002689368016B43EA0B
:100F7000412393600268936823F48063936002685E
:100F80009368416943EA81239360704702689368DC
:100F900023F0706393600268936823F0405393607A
:100FA000BEE70268536843F4006353600268536805
:100FB00023F46043536001684B68426A013A43EA94
:100FC00042334B60BFE700BF002301400100000F28
:100FD00030B310B50446036C43B1236C13F0100F0B
:100FE0000AD00120002384F83C3010BD436480F80F
:100FF0003C3001F027FFF0E7236C23F4885323F003
:10100000020343F0020323642046FFF749FF002058
:101010006064236C23F0030343F001032364E1E7DE
:101020000120704782B00023019390F83C30012BDF
:1010300063D0012380F83C3003689A6812F0010FF6
:1010400013D19A6842F001029A60304B1B68304A13
:10105000A2FB03239B0C03EB4303019302E0019BE0
:10106000013B0193019B002BF9D10268936813F0B7
:10107000010F45D0036C23F4E06323F0010343F434
:1010800080730364536813F4806F05D0036C23F4FA
:10109000405343F480530364036C13F4805F19D00E
:1010A000436C23F006034364002380F83C306FF068
:1010B00022031360174B5B6813F01F0F0DD10368F9
:1010C0009A6812F0405F1DD19A6842F080429A609F
:1010D000002013E000234364E6E703680E4A9342CE
:1010E00001D000200AE09A6812F0405F0CD19A68A3
:1010F00042F080429A60002000E0022002B0704777
:101100000020FBE70020F9E70020F7E710000020AF
:1011100083DE1B43002301400020014090F83C3057
:10112000012B19D0012380F83C300268936823F02A
:101130000103936003689B6813F0010F07D1036CF0
:1011400023F4885323F0010343F0010303640023D5
:1011500080F83C30184670470220704703689A6850
:1011600012F4806F03D09B6813F4807F1CD170B59C
:101170000D460446FFF77AFE064623681A6812F009
:10118000020F1AD1B5F1FF3FF7D025B1FFF76EFE80
:10119000801B8542F1D2236C43F0040323640023B7
:1011A00084F83C30032070BD036C43F020030364DB
:1011B000002380F83C30012070476FF012021A6063
:1011C000236C43F40073236423689A6812F0405F31
:1011D00017D1A269BAB9DA6A12F4700F03D09B680A
:1011E00013F4806F11D1236C23F480732364236C78
:1011F00013F4805F0BD1236C43F0010323640020C0
:1012000070BD002070BD002070BD002070BD0020AA
:1012100070BD0368D86C704730B482B0002301936E
:1012200090F83C30012B00F0B780012380F83C306F
:101230000B68092B3ED90568EA689BB203EB4303B0
:101240001E3B072404FA03F322EA0303EB6005685C
:10125000EA688C680B8803EB43031E3B04FA03F334
:101260001343EB604B68062B3AD805686A6B03EBB7
:101270008303053B1F2404FA03F322EA03036B6391
:1012800005686A6B4B6803EB8303053B0C8804FA23
:1012900003F313436B630268404B9A4250D00268D9
:1012A0003E4B9A4255D0002380F83C30184602B09D
:1012B00030BC704705682A699BB203EB43030724DF
:1012C00004FA03F322EA03032B6105682A698C6898
:1012D0000B8803EB430304FA03F313432B61C1E7C9
:1012E0000C2B16D805682A6B03EB8303233B1F24C2
:1012F00004FA03F322EA03032B6305682A6B4B68A5
:1013000003EB8303233B0C8804FA03F313432B639F
:10131000C1E70568EA6A03EB8303413B1F2404FA33
:1013200003F322EA0303EB620568EA6A4B6803EB06
:101330008303413B0C8804FA03F31343EB62AAE7EF
:101340000B68122BABD1164A536843F480035360E9
:10135000A5E70B68103B012BA5D8114A536843F44D
:10136000000353600B68102B9DD10E4B1B6802F1DC
:10137000467202F52E3202F28332A2FB03239B0C4B
:1013800003EB83035A00019202E0019B013B0193AE
:10139000019B002BF9D186E7022088E7002001405D
:1013A0000023014010000020074AD36823F4E063C3
:1013B0001B041B0C000200F4E060184340F0BF6007
:1013C00040F40030D060704700ED00E030B4164BC0
:1013D000DB68C3F30223C3F10704042C28BF0424F1
:1013E0001D1D062D17D9033B012505FA04F4013C08
:1013F0002140994005FA03F3013B134019430028AB
:101400000BDB0901C9B200F1604000F5614080F8D2
:10141000001330BC70470023E6E700F00F0009011D
:10142000C9B2024B1954F4E700ED00E014ED00E0FE
:10143000420900F01F00012303FA00F0014B43F8BA
:101440002200704700E100E00138B0F1807F0AD24D
:10145000064B5860F021064A82F82310002098605D
:1014600007221A6070470120704700BF10E000E0BB
:1014700000ED00E0042805D0054A136823F00403BA
:1014800013607047024A136843F004031360704707
:1014900010E000E0704708B5FFF7FCFF08BD000052
:1014A000F0B583B000248FE0E608083650F8262017
:1014B00004F0070E4FEA8E0E0F2707FA0EF722EA06
:1014C00007020F6907FA0EF73A4340F826208BE02F
:1014D00086681640CF6807FA0EF73E438660466876
:1014E00026EA03034E68C6F30016A6403343436062
:1014F000C3681A408B6803FA0EF31A43C2604B6844
:1015000013F0805F5FD0002301934B4B5A6C42F481
:1015100080425A645B6C03F480430193019BA208F0
:10152000961C464B53F8263004F00306B6000F27EE
:10153000B74023EA0703424FB84272D007F58067ED
:10154000B84270D007F58067B8426ED007F5806763
:10155000B8426CD007F58067B84260D0072707FA19
:1015600006F633430232354E46F82230354B1A68C0
:10157000EB4302EA03064F6817F4803F01D045EAC7
:101580000206304A1660526803EA02064F6817F4F2
:10159000003F01D045EA02062A4A5660926803EAF3
:1015A00002064F6817F4801F01D045EA0206254A5B
:1015B0009660D26813404E6816F4001F01D045EAC9
:1015C0000203204AD36001340F2C32D80123A340F8
:1015D0000A6803EA0205AB42F5D14A68022A3FF4E1
:1015E00063AF122A3FF460AF06684FEA440E03224D
:1015F00002FA0EF2D24316404F6807F0030707FACB
:101600000EF73E4306604E68771E012F7FF660AFEF
:10161000112E3FF45DAF122E7FF46AAF58E7042716
:101620009DE700279BE7012799E7022797E7032714
:1016300095E703B0F0BD00BF00380240003801401C
:1016400000000240003C01400369194201D1002022
:1016500070470120704712B90904816170478161A8
:1016600070474369594041617047000008B5054B18
:101670005B69034200D108BD024B586101F07CF95F
:10168000F9E700BF003C0140002800F0BB8170B5C5
:1016900082B00446036813F0010F3BD0A74B9B6850
:1016A00003F00C03042B2CD0A44B9B6803F00C0319
:1016B000082B21D06368B3F5803F4FD0B3F5A02F3E
:1016C00052D09E4B1A6822F480321A601A6822F4B3
:1016D00080221A606368002B50D0FFF7C7FB0546D5
:1016E000964B1B6813F4003F14D1FFF7BFFB401B60
:1016F0006428F5D903208AE1904B5B6813F4800FCE
:10170000D8D08E4B1B6813F4003F03D06368002BC6
:1017100000F07A81236813F0020F55D0874B9B6845
:1017200013F00C0F3ED0854B9B6803F00C03082B85
:1017300033D0E368002B68D00122814B1A60FFF799
:1017400095FB05467D4B1B6813F0020F54D1FFF744
:101750008DFB401B0228F5D9032058E1774A136816
:1017600043F480331360B5E7744B1A6842F4802267
:101770001A601A6842F480321A60ABE7FFF776FB12
:1017800005466E4B1B6813F4003FC3D0FFF76EFB9A
:10179000401B6428F5D9032039E1684B5B6813F4DA
:1017A000800FC6D1654B1B6813F0020F04D0E368AD
:1017B000012B01D001202AE1604A136823F0F803CD
:1017C000216943EAC1031360236813F0080F40D076
:1017D000636963B301225B4B1A60FFF747FB054661
:1017E000564B5B6F13F0020F33D1FFF73FFB401BEB
:1017F0000228F5D903200AE1504A136823F0F803C0
:10180000216943EAC1031360DEE700224C4B1A60F2
:10181000FFF72CFB0546494B1B6813F0020FD3D092
:10182000FFF724FB401B0228F5D90320EFE000223C
:10183000444B1A60FFF71AFB0546404B5B6F13F0F1
:10184000020F06D0FFF712FB401B0228F5D9032038
:10185000DDE0236813F0040F79D0384B1B6C13F0D4
:10186000805F33D100230193344B1A6C42F08052D5
:101870001A641B6C03F080530193019B0125324BCA
:101880001B6813F4807F23D0A368012B34D0052B71
:1018900038D02A4B1A6F22F001021A671A6F22F011
:1018A00004021A67A368002B36D0FFF7DFFA06465A
:1018B000224B1B6F13F0020F48D1FFF7D7FA801BA2
:1018C00041F288339842F3D90320A0E00025D6E7FF
:1018D0001D4A136843F480731360FFF7C7FA064686
:1018E000194B1B6813F4807FCED1FFF7BFFA801B22
:1018F0000228F5D903208AE0104A136F43F0010350
:101900001367CFE70D4B1A6F42F004021A671A6F84
:1019100042F001021A67C5E7FFF7A8FA0646074B2F
:101920001B6F13F0020F11D0FFF7A0FA801B41F2DA
:1019300088339842F3D9032069E000BF00380240A1
:1019400000004742800E474200700040E5B9A3699D
:10195000002B5BD0304A926802F00C02082A58D063
:10196000022B17D000222D4B1A60FFF77FFA044696
:10197000294B1B6813F0007F42D0FFF777FA001B5A
:101980000228F5D9032042E0234A136C23F0805348
:101990001364DCE70022214B1A60FFF767FA054663
:1019A0001D4B1B6813F0007F06D0FFF75FFA401B4A
:1019B0000228F5D903202AE0E369226A1343626A08
:1019C00043EA8213A26A5208013A43EA0243E26AF6
:1019D00043EA0263104A53600122104B1A60FFF77A
:1019E00045FA04460C4B1B6813F0007F06D1FFF745
:1019F0003DFA001B0228F5D9032008E0002006E08C
:101A0000002004E001207047012000E0002002B027
:101A100070BD0120FBE700BF003802406000474274
:101A2000F8B5314B9B6803F00C03042B59D0082BFD
:101A300001D02E48F8BD2C4B5A6802F03F025B687B
:101A400013F4800F2AD0284B5B68C3F388131E461B
:101A500000275C010025E41A65EB0705A90141EAAE
:101A60009461A001001B61EB0501CB0043EA5073B8
:101A7000C400A01943EB07014B0243EAD0534402D0
:101A8000204619460023FFF71DF8174B5B68C3F388
:101A9000014301335B00B0FBF3F0F8BD124B5B6810
:101AA000C3F388131E4600275C010025E41A65EB8A
:101AB0000705A90141EA9461A001001B61EB050142
:101AC000CB0043EA5073C400A01943EB07018B021B
:101AD00043EA90538402204619460023FEF7F2FFA2
:101AE000D3E70348F8BD00BF003802400024F400EB
:101AF00000127A00002800F09D8070B504464F4B1C
:101B00001B6803F00F038B4209D2CBB24B4A137010
:101B1000136803F00F03994201D0012070BD2368C0
:101B200013F0020F17D013F0040F04D0444A936847
:101B300043F4E0539360236813F0080F04D0404A45
:101B4000936843F4604393603D4A936823F0F00345
:101B5000A068034393600D46236813F0010F32D051
:101B60006368012B21D09A1E012A25D9344A1268B4
:101B700012F0020F60D032498A6822F00302134348
:101B80008B60FFF773F906462D4B9B6803F00C033F
:101B90006268B3EB820F16D0FFF768F9801B41F241
:101BA00088339842F0D9032070BD254A126812F498
:101BB000003FE0D1012070BD214A126812F0007F81
:101BC000D9D1012070BD1D4B1B6803F00F039D424E
:101BD00009D2EAB2194B1A701B6803F00F039D4239
:101BE00001D0012070BD236813F0040F06D0144A01
:101BF000936823F4E053E1680B439360236813F088
:101C0000080F07D00E4A936823F46043216943EA22
:101C1000C1039360FFF704FF094B9B68C3F30313F1
:101C2000084AD35CD840084B18600020FFF7D2F870
:101C3000002070BD01207047012070BD003C0240B3
:101C400000380240343C000810000020014B1868A6
:101C5000704700BF1000002008B5FFF7F7FF044BE6
:101C60009B68C3F38223034AD35CD84008BD00BFFE
:101C700000380240443C000808B5FFF7E7FF044B7A
:101C80009B68C3F34233034AD35CD84008BD00BF0E
:101C900000380240443C00080268D36843F0010366
:101CA000D3600268136843F001031360002070479B
:101CB0000268D36823F00103D3600368196A41F214
:101CC0001112114208D1196A40F24442114203D163
:101CD0001A6822F001021A600020704770477047AE
:101CE00070477047704710B5044603681A6912F0D0
:101CF000020F11D0DA6812F0020F0DD06FF002025D
:101D00001A610123037603689B6913F0030F70D0F7
:101D1000FFF7E6FF0023237623681A6912F0040F09
:101D200012D0DA6812F0040F0ED06FF004021A61BC
:101D30000223237623689B6913F4407F5FD02046FB
:101D4000FFF7CEFF0023237623681A6912F0080FED
:101D500012D0DA6812F0080F0ED06FF008021A6184
:101D6000042323762368DB6913F0030F4ED020464B
:101D7000FFF7B6FF0023237623681A6912F0100FCD
:101D800012D0DA6812F0100F0ED06FF010021A6144
:101D9000082323762368DB6913F4407F3DD0204677
:101DA000FFF79EFF0023237623681A6912F0010FC4
:101DB00003D0DA6812F0010F36D123681A6912F0E5
:101DC000800F03D0DA6812F0800F34D123681A69CB
:101DD00012F0400F03D0DA6812F0400F32D12368BE
:101DE0001A6912F0200F03D0DA6812F0200F30D1F8
:101DF00010BDFFF774FF2046FFF773FF8AE7204608
:101E0000FFF76DFF2046FFF76CFF9BE72046FFF7CB
:101E100066FF2046FFF765FFACE72046FFF75FFF50
:101E20002046FFF75EFFBDE76FF001021A61204612
:101E3000FFF754FFC1E76FF080021A61204600F0FF
:101E400091F8C3E76FF040021A612046FFF74AFF9E
:101E5000C5E76FF020021A61204600F082F8C7E75C
:101E60000368324A904245D0B0F1804F44D0A2F589
:101E70007C42904242D002F58062904240D002F50E
:101E80008062904234D000221AB123F070034A6875
:101E90001343264A904237D0B0F1804F36D0A2F596
:101EA0007C42904234D002F58062904232D002F5FA
:101EB0008062904230D002F59A3290422ED002F5E4
:101EC000806290422CD002F5806290421AD00022AB
:101ED0001AB123F44073CA68134303608B68C3626A
:101EE0000B688362114B98421CD0012343617047F9
:101EF0000122C9E70122C7E70122C5E70122C3E7A2
:101F00000122C1E70122E3E70122E1E70122DFE745
:101F10000122DDE70122DBE70122D9E70122D7E731
:101F20000122D5E70B690363DFE700BF0000014032
:101F3000A8B110B5044690F839305BB1022384F89B
:101F40003930211D2068FFF78BFF012384F83930D9
:101F5000002010BD80F8383000F098FFEEE7012037
:101F600070477047704700002DE9F047044602684B
:101F7000136923F44053C1680B4313610168CB68B4
:101F800023F4164323F00C0382680069024360695E
:101F90000243E06902431343CB602268536923F490
:101FA0004073A1690B435361E369B3F5004F62D0FD
:101FB000D4F80080BB4B984500F01B8103F580638B
:101FC000984500F01681FFF747FE00EB800000EB1C
:101FD00080006568AD00B0FBF5F5B34FA7FB053594
:101FE0006D092E01FFF738FE00EB800000EB80004A
:101FF0006568AD00B0FBF5FAFFF72EFE00EB800040
:1020000000EB80006568AD00B0FBF5F5A7FB05357A
:102010006D094FF0640909FB15A52D013235A7FBA9
:1020200005356D0905F0F0053544FFF715FE00EBA9
:10203000800000EB80006668B600B0FBF6F6FFF7A4
:102040000BFE00EB800000EB800063689B00B0FBA0
:10205000F3F0A7FB0030400909FB10694FEA0919AA
:1020600009F13209A7FB0937C7F343172F44C8F812
:102070000870BDE8F087D4F8008003F1804303F5D1
:10208000104398455CD003F58063984558D0FFF71E
:10209000E3FD00EB800000EB800065686D00B0FBA5
:1020A000F5F5814FA7FB05356D092E01FFF7D4FD2E
:1020B00000EB800000EB800065686D00B0FBF5FA76
:1020C000FFF7CAFD00EB800000EB800065686D0043
:1020D000B0FBF5F5A7FB05356D094FF0640909FB69
:1020E00015A5ED003235A7FB05356D096D0005F42A
:1020F000F8753544FFF7B0FD00EB800000EB800081
:1021000066687600B0FBF6F6FFF7A6FD00EB8000F0
:1021100000EB800063685B00B0FBF3F3A7FB0323D5
:102120005B0909FB13694FEAC90909F13209A7FBE9
:102130000937C7F342172F44C8F80870BDE8F08785
:10214000FFF79AFD00EB800000EB800065686D00F2
:10215000B0FBF5F5544FA7FB05356D092E01FFF7D0
:102160008BFD00EB800000EB800065686D00B0FB2C
:10217000F5FAFFF781FD00EB800000EB8000656859
:102180006D00B0FBF5F5A7FB05356D094FF064094F
:1021900009FB15A5ED003235A7FB05356D096D006E
:1021A00005F4F8753544FFF767FD00EB800000EBA0
:1021B000800066687600B0FBF6F6FFF75DFD00EB89
:1021C000800000EB800063685B00B0FBF3F3A7FBCB
:1021D00003235B0909FB13694FEAC90909F13209B5
:1021E000A7FB0937C7F342172F44C8F80870BDE8AA
:1021F000F087FFF741FD00EB800000EB8000656891
:10220000AD00B0FBF5F5284FA7FB05356D092E0194
:10221000FFF732FD00EB800000EB80006568AD0049
:10222000B0FBF5FAFFF728FD00EB800000EB800023
:102230006568AD00B0FBF5F5A7FB05356D094FF0FE
:10224000640909FB15A52D013235A7FB05356D097C
:1022500005F0F0053544FFF70FFD00EB800000EBC3
:1022600080006668B600B0FBF6F6FFF705FD00EBF0
:10227000800000EB800063689B00B0FBF3F3A7FBDA
:1022800003235B0909FB13694FEA091909F13209B4
:10229000A7FB0937C7F343172F44C8F80870BDE8F8
:1022A000F08700BF001001401F85EB512DE9F04180
:1022B00005460F4616469846069C2B681B6837EA6B
:1022C00003030CBF01230023B3421ED1B4F1FF3F2F
:1022D000F3D02CB1FEF7CAFDA0EB08008442ECD28B
:1022E0002A68D36823F4D073D3602A68536923F033
:1022F00001035361202385F8393085F83A300023F3
:1023000085F838300320BDE8F0810020BDE8F08179
:1023100058B310B5044690F839300BB3242384F831
:1023200039302268D36823F40053D3602046FFF786
:102330001BFE2268136923F49043136122685369DA
:1023400023F02A0353612268D36843F40053D36017
:102350000020E063202384F8393084F83A3010BD3F
:1023600080F8383000F0CCFDD8E7012070472DE927
:10237000F04182B01E4690F83930DBB2202B04D0F9
:102380000223184602B0BDE8F08104460D4690468F
:10239000002955D0002A55D090F83830012B01D1B2
:1023A0000223EEE7012380F838300023C3632123A2
:1023B00080F83930FEF75AFD0746A4F82480A4F8C7
:1023C000268010E000963B46002280212046FFF741
:1023D0006DFF002838D122682B88C3F308035360AF
:1023E0002369CBB90235E38C9BB2BBB1E38C9BB2C2
:1023F000013B9BB2E384A368B3F5805FE2D0009613
:102400003B46002280212046FFF750FFF0B92368A9
:102410002A785A600135E6E70135E4E700963B4645
:10242000002240212046FFF741FF034608B1032365
:10243000A7E7202284F83920002284F83820A0E77A
:1024400001239EE701239CE703239AE7032398E7F0
:1024500010B504460748FFF71FFC074B1968064BE9
:102460001B685B1AA21E9342F9D30248FFF720FCB7
:1024700010BD00BFB40000209C00002010B5044631
:102480002820FFF7E5FF0122E1896068FFF7E3F804
:102490002820FFF7DDFF0022E1896068FFF7DBF805
:1024A0002820FFF7D5FF10BD38B504460D460022A1
:1024B00081894068FFF7CFF80022218A6068FFF722
:1024C000CAF8A268536923F0FF035361A3685A69ED
:1024D00015435D612046FFF7D1FF2820FFF7B8FFC5
:1024E00038BD10B50446416082810382039B83603E
:1024F000BDF810304382BDF80830C3819DF8183014
:1025000083709DF8143043700F20FEF7B5FC38211E
:102510002046FFF7C9FF0520FEF7AEFC3821204614
:10252000FFF7C2FF6420FFF793FF38212046FFF733
:10253000BBFF38212046FFF7B7FF06212046FFF7F3
:10254000B3FF0E212046FFF7AFFF01212046FFF722
:10255000ABFF0220FEF790FC80212046FFF7A4FF8E
:1025600010BD38B504460D46012281894068FFF749
:1025700072F80022218A6068FFF76DF8A26853693B
:1025800023F0FF035361A3685A6915435D61204638
:10259000FFF774FF2820FFF75BFF38BD08B58901FE
:1025A00061F07F011143C9B2FFF77EFF2820FFF7DA
:1025B0004FFF08BD08B5FFF7D4FF2820FFF748FFFD
:1025C00008BD38B505460C4603E02846FFF7F2FF84
:1025D000013421780029F8D12820FFF739FF38BDD0
:1025E00070B506460D46092917D900291ADB114B8B
:1025F00083FB0123CC17C4EBA3042146FFF7F0FFB4
:1026000004EB84046100691A3031C9B23046FFF727
:10261000D1FF2820FFF71CFF70BD3031C9B2FFF792
:10262000C9FF70BD2D21FFF7C5FF69423046FFF796
:10263000D7FFEEE7676666662DE9F0418AB00024B1
:1026400001943B4B1A6B42F004021A631A6B02F0BE
:1026500004020192019A02941A6B42F080021A63FA
:102660001A6B02F080020292029A03941A6B42F0F3
:1026700001021A631A6B02F001020392039A049496
:102680001A6B42F002021A631B6B03F002030493FD
:10269000049B284F2246FF213846FEF7DCFF264EDA
:1026A000224630213046FEF7D6FFDFF894802246DE
:1026B00007214046FEF7CFFF4FF40C5305931F4B05
:1026C0000693079405A93846FEF7EAFEFF23059313
:1026D000012506950794089405A93846FEF7E0FE03
:1026E00010230593112306930795089405A93046F6
:1026F000FEF7D6FE2023059306950794089405A9B6
:102700003046FEF7CDFE07230593069507940894FF
:1027100005A94046FEF7C4FE224621461720FEF7D3
:1027200055FE1720FEF784FE0AB0BDE8F08100BF19
:102730000038024000080240000002400000211062
:102740000004024038B5002410210F48FEF77CFF3A
:1027500038B90134A4B20D4B18888442F4D300B2C6
:1027600038BD002510210848FEF76EFF012807D16B
:102770000135ADB2054B18888542F3D300B238BDA0
:10278000281B00B238BD00BF000002400800002036
:1027900010B56420FEF770FB304C0022102120465B
:1027A000FEF759FF1420FEF767FB01221021204697
:1027B000FEF751FF002410212848FEF745FF0128AD
:1027C00008D10134A4B2264B1B889C42F3D96FF088
:1027D000620010BD002406E0FFF7B4FF214B23F890
:1027E00014000134E4B2282CF6D9002418E0013397
:1027F000DBB2072B10D803EBC4010131194830F9C3
:10280000111017480088814222DA5200D2B2002902
:10281000EDDD42F00102EAE7134B1A550134E4B250
:10282000042C02D800231A46E3E700231A4604E0EA
:102830000D49C95C0A44D2B20133032BF8DD0A4BBF
:1028400093F904309A4206D1074B93F9020010BD68
:102850006FF0620010BD6FF0620010BD000002401A
:102860000800002004010020DC010020000000001E
:1028700010B582B0304C2046FEF7D4FB4FF0FF314C
:102880002046FEF76BFC00283FD02B48FEF746FCA5
:102890002A4B1888FDF74EFE1FA3D3E90023FDF74E
:1028A000AFFEFEF7BFF89FED267A06EE900AC7EE60
:1028B000267A9FED240A77EEC07A87EE800A01F02F
:1028C0000DF810EE100AFDF747FE15A3D3E900231B
:1028D000FDF796FE14A3D3E90023FDF7DFFC0246C3
:1028E0000B4613A1D1E90001FDF7B4FFFEF79AF8FA
:1028F00007EE900AFDEEE77ACDED017ABDF904000E
:10290000A0F2111000B202B010BD2046FEF781FC0B
:102910000A4B1880B9E700BF6666666666664A3F7E
:102920006666666666A272400000000000F4AA4077
:10293000FFFFFFFF12642F4194010020A000002040
:102940000050434700401C46044B93F900300F2BC6
:1029500002DD013B014A1370704700BF0A000020EE
:10296000044B93F900301D2B02DC0133014A137034
:10297000704700BF0A00002010B50446B0F5007F84
:1029800003D0B4F5807F03D010BDFFF7E9FFF8E76F
:10299000FFF7DAFFF8E7FEE708B50A480A4B0360DD
:1029A00040F23F534360002383604FF22342C260F2
:1029B0000361FFF7BDFA00B908BD4FF4A5710348E4
:1029C000FFF7E9FF5801002000440140003C0008E7
:1029D00008B50948094B03600023436083604F2218
:1029E000C2600361FFF7A4FA00B908BD4FF4AC71EF
:1029F0000348FFF7D0FF00BFB400002000480140AB
:102A0000003C000800B585B01648174B03604FF432
:102A10004033436000238360036183610362C362C8
:102A2000124A8262C3600122C26103634261FEF7FF
:102A3000CFFA68B90023009301230193072302937F
:102A400069460848FEF7E8FB38B905B05DF804FBB5
:102A500040F233110648FFF79EFF4FF49E71044881
:102A6000FFF799FF94010020002001400100000FB2
:102A7000003C000808B50B480B4B03604FF4E133F2
:102A8000436000238360C36003610C224261836161
:102A9000C361FFF73DFC00B908BD40F2691103486E
:102AA000FFF779FFE401002000440040003C0008EB
:102AB00000B595B0002201922B4B196C41F080516A
:102AC00019641B6C03F080530193019B0292274908
:102AD0000B6823F4404343F400430B600B6803F49A
:102AE00040430293029B0221089101230B93102380
:102AF0000C930E910F9210934FF4A873119304232B
:102B000012930723139308A8FEF7BEFD08BB0F23FB
:102B1000039302210491002305934FF480520692FF
:102B2000079303A8FEF7E6FFC0B9FFF78FF8104B35
:102B3000A3FB00308009FEF787FC0420FEF79AFC17
:102B4000002211464FF0FF30FEF740FC15B05DF853
:102B500004FB40F203110748FFF71DFF4FF4887193
:102B60000448FFF718FF00BF003802400070004023
:102B7000D34D6210003C00082DE9F04F91B0FEF7F4
:102B80004FF9FFF795FFFFF757FDFFF705FFFFF739
:102B90001FFFFFF737FFFFF76DFF7448FFF77CF863
:102BA000734C744B1B780493734B1B780393FF2374
:102BB0000293724B01930423009302230122704974
:102BC0002046FFF78EFC6F492046FFF7FAFC49F6D6
:102BD000EC226D4B1A6049F6ED2508E06A4B1B6844
:102BE00013F0010F00F08D800A20FEF745F9664BC7
:102BF0001B689D42F2D0654AA2FB032A4FEADA2AFB
:102C00006349A1FB032B4FEADB3B4FF4616909FBEE
:102C10001A39604EA6FB09284FEA58185E49A1FBF5
:102C200009294FEA9919A6FB03267609C6EB061671
:102C3000B2009E1A594CA4FB0637FF084C4D0022E7
:102C400001212846FFF7AAFC0BF13001C9B2284642
:102C5000FFF7B0FCA4FB0A31C90801EB81014B006E
:102C6000AAEB03013031C9B22846FFF7A3FC3A2191
:102C70002846FFF79FFC09F13001C9B22846FFF74B
:102C800099FCA4FB0831C90801EB81014B00A8EBBA
:102C900003013031C9B22846FFF78CFC3A2128469F
:102CA000FFF788FCA4FB0731C90801EB81014C0048
:102CB000391B3031C9B22846FFF77CFC07EB870788
:102CC0007900711A3031C9B22846FFF773FC0A2225
:102CD00000212846FFF762FC314B93F9001028468B
:102CE000FFF77EFC43212846FFF764FC202128469D
:102CF000FFF760FC244B1D6820212A48FEF7B1FC39
:102D00006CE74FF47A70FEF7B7F8FFF7B1FD0646AF
:102D1000FFF73EFD074633460246234906A800F06A
:102D2000BFF906A8FDF75CFA4FF47A7382B206A9E0
:102D30001E48FFF71CFB0E4C092201212046FFF71D
:102D40002DFC39462046FFF74BFC43212046FFF778
:102D500031FC31462046FFF743FC43212046FFF774
:102D600029FC20212046FFF725FC3DE758010020E3
:102D7000F00000200B0000200C00002000080240A2
:102D800000040240103C000898000020C5B3A29146
:102D9000D55204E989888888B5814E1BCDCCCCCC2E
:102DA0000A000020000002401C3C0008E401002052
:102DB00010B582B000240094214B5A6C42F480423A
:102DC0005A645A6C02F480420092009A01941A6C80
:102DD00042F080521A641B6C03F080530193019BF4
:102DE0000720FEF7E1FA224621466FF00B00FEF7BE
:102DF000EDFA224621466FF00A00FEF7E7FA224676
:102E000021466FF00900FEF7E1FA224621466FF0F5
:102E10000400FEF7DBFA224621466FF00300FEF7BE
:102E2000D5FA224621466FF00100FEF7CFFA22467E
:102E300021464FF0FF30FEF7C9FA02B010BD00BFC7
:102E40000038024002680F4B9A4200D0704700B52C
:102E500087B00021009103F58C335A6C42F48072E4
:102E60005A645B6C03F480730093009B012301930D
:102E700003230293039101A90348FEF711FB07B056
:102E80005DF804FB002001400000024000B583B063
:102E90000368184A934205D0174A934216D003B0EC
:102EA0005DF804FB00210091144B5A6C42F400328F
:102EB0005A645B6C03F400330093009B0A461920AC
:102EC000FEF784FA1920FEF7B3FAE8E70021019132
:102ED0000A4B5A6C42F480225A645B6C03F48023E0
:102EE0000193019B0A461A20FEF770FA1A20FEF79A
:102EF0009FFAD4E7004401400048014000380240F6
:102F00000268104B9A4200D0704700B587B000238A
:102F100000930D4A116C41F400311164126C02F4FB
:102F200000320092009A0C22019202220292039334
:102F300004930723059301A90448FEF7B1FA07B0EB
:102F40005DF804FB004400400038024000000240ED
:102F50007047FEE7FEE7FEE7FEE770477047704701
:102F600008B5FDF777FFFEF796FA08BD08B54FF4F0
:102F70008070FEF77BFB4FF40070FEF777FB08BD17
:102F800008B5044A1368013313600348FEF7ABFE2B
:102F900008BD00BF980000205801002008B5044A71
:102FA0001368013313600348FEF79DFE08BD00BFA0
:102FB0009C000020B40000200F49D1F8883043F471
:102FC0007003C1F888300D4B1A6842F001021A6094
:102FD000002098601A6822F0847222F480321A600D
:102FE000074A5A601A6822F480221A60D8604FF0AB
:102FF00000638B60704700BF00ED00E000380240C6
:1030000010300024DFF834D0002103E00C4B5B5873
:10301000435004310B480C4B42189A42F6D30B4AEA
:1030200002E0002342F8043B094B9A42F9D3FFF730
:10303000C3FF00F011F8FFF79FFD704700800120EB
:10304000943C0008000000207C0000207C00002050
:1030500028020020FEE7000070B50D4E0D4CA41BA9
:10306000A4100025A54209D10B4E0C4C00F0BCFD6C
:10307000A41BA4100025A54205D170BD56F825302B
:1030800098470135EEE756F8253098470135F2E7C5
:103090008C3C00088C3C00088C3C0008903C0008EC
:1030A0000EB400B59CB04FF402711DABADF8141016
:1030B000029006906FF000410A48049107914FF684
:1030C000FF7153F8042BADF816100068019302A9A4
:1030D00000F066F8029B00221A701CB05DF804EB49
:1030E00003B07047140000202DE9F0478E689E421F
:1030F00082460C469146984635D88A8912F4906FDC
:1031000031D0256809696F1A6569022305EB450509
:1031100095FBF3F508F101033B449D4238BF1D4682
:10312000530531D5294600F039FB064650B90C232A
:10313000CAF80030A38943F04003A3814FF0FF3069
:10314000BDE8F0873A46216900F0B4FAA38923F478
:10315000906343F08003A381266165613E44ED1BCB
:103160002660A5604646464528BF46463246494643
:10317000206800F0AAFAA3689B1BA36023681E4482
:1031800026600020BDE8F0872A4600F065FB064671
:103190000028E1D12169504600F0B2FAC7E70000EB
:1031A0002DE9F04F9DB0804603938B891C060D4698
:1031B00016460FD50B696BB9402100F0EFFA286075
:1031C000286128B90C23C8F800304FF0FF30C5E063
:1031D00040236B610023099320238DF8293030238D
:1031E0008DF82A304FF0010B37463C4614F8013B6E
:1031F000002B3CD1B7EB060A0BD05346324629468A
:103200004046FFF771FF013000F0A380099B534453
:1032100009933B78002B00F09C8000234FF0FF3295
:1032200004930793059206938DF853301A93052261
:1032300021785048FCF7DCFF671C049BD8B9D906FD
:1032400044BF20228DF853201A0744BF2B228DF84B
:10325000532022782A2A16D0079A00210A202746CE
:1032600001343B78303B092B51D9C9B111E0252BF2
:10327000C0D02746B9E73F4A801A0BFA00F018433E
:1032800004903C46D3E7039A111D12680391002A6B
:1032900001DB079204E0524243F0020307920493D9
:1032A0003B782E2B0ED17B782A2B07F1010132D1EE
:1032B000039B1A1D1B680392002BB8BF4FF0FF330E
:1032C000023705932C4C397803222046FCF790FFF7
:1032D00038B14023001B03FA00F0049B034304931E
:1032E0000137397825488DF8281006227E1CFCF716
:1032F0007FFF002835D0224BFBB9039B073323F017
:10330000070308330393099B4B4409936CE700FBC5
:1033100002320121A3E70023059318460A240F4631
:1033200001313A78303A092A03D9002BCAD00590E6
:10333000C8E704FB00200123F1E703AB00932A4612
:10334000104B04A94046AFF30080B0F1FF3F814627
:10335000D9D1AB895B063FF538AF09981DB0BDE800
:10336000F08F03AB00932A46064B04A9404600F0B9
:1033700081F8EAE74C3C0008523C0008563C000843
:1033800000000000E93000082DE9F04791461F4693
:103390008A680B69DDF820809342B8BF1346C9F8EC
:1033A000003091F8432006460C4612B10133C9F8AB
:1033B00000302368990642BFD9F800300233C9F8BB
:1033C0000030256815F0060507D104F1190AE368F5
:1033D000D9F800209B1A9D4229DB94F843302268DB
:1033E000003318BF012392062ED404F1430239465C
:1033F0003046C047013021D02368E568D9F8002065
:1034000003F00603042B08BFAD1AA36822690CBFA2
:1034100025EAE57500259342C4BF9B1AED184FF0CD
:1034200000091A344D451BD10020BDE8F087012367
:10343000524639463046C047013003D14FF0FF3085
:10344000BDE8F0870135C2E7E1185A1C302081F849
:103450004300224494F8451082F843100233C4E735
:103460000123224639463046C0470130E6D009F1F3
:103470000109D7E72DE9F04317460A7E85B06E2A89
:10348000984606460C460C9B01F1430E00F0BC80AA
:103490001AD8632A2ED00AD8002A00F0C880582AE9
:1034A00000F08A8004F1420584F842202AE0642A70
:1034B00001D0692AF6D121681A6811F0800F23D053
:1034C000111D1960136827E0732A00F0B48008D832
:1034D0006F2A2AD0702AE5D10A6842F020020A60D9
:1034E00003E0752A21D0782ADCD1782284F845209F
:1034F0006E4964E01A6801F14205111D19601368F4
:1035000084F842300123A3E011F0400F02F10401DE
:103510001960D7D0B2F90030002B03DA2D225B42BC
:1035200084F8432062490A2217E02068196810F0E5
:10353000800F03D0081D18600B6806E010F0400FE4
:1035400001F104001860F7D00B8859496F2A14BFA5
:103550000A220822002084F843006568A560002D37
:10356000C0F29C80206820F004002060002B3FD136
:10357000002D40F095807546082A0BD12368DA07A4
:1035800008D5236962689A42DEBF302305F8013C02
:1035900005F1FF35AEEB05032361CDF800803B4616
:1035A00003AA21463046FFF7EFFE013055D14FF018
:1035B000FF3005B0BDE8F08381F845203C49226822
:1035C000186812F0800F00F104051D6001D0036837
:1035D00002E05506FBD50388D00744BF42F0200225
:1035E00022601BB9226822F0200222601022B1E77B
:1035F0007546B3FBF2F002FB1033CB5C05F8013DDE
:1036000003460028F5D1B7E708681A68496910F041
:10361000800F04D0101D18601368196007E010F0C7
:10362000400F02F1040018601368F6D019800023DF
:1036300023617546B1E71A68111D19601568626843
:1036400000212846FCF7D4FD08B1401B6060636888
:103650002361002384F843309FE723692A463946D3
:103660003046C0470130A2D023689B0707D500250C
:1036700004F11909E368039A9B1A9D4205DBE0688F
:10368000039B9842B8BF184693E701234A46394640
:103690003046C04701308AD00135EBE7002BA7D177
:1036A0000B7884F8423004F1420565E76E3C00086F
:1036B0005D3C000810B5431E0A44914200D110BD84
:1036C00011F8014B03F8014FF7E7884210B501EB01
:1036D000020303D8421E99420CD110BD9842F9D280
:1036E0008118D21AD34200D110BD13F8014D01F850
:1036F000014DF7E711F8014B02F8014FEBE700002D
:1037000038B50546002945D051F8043C0C1F002B64
:10371000B8BFE41800F0D6F81F4A1368104633B952
:10372000636014602846BDE8384000F0CCB8A3427E
:103730000CD921686218934204BF1A685B68636001
:1037400004BF521822600460ECE713465A680AB1BD
:10375000A242FAD919685818A0420BD12068014436
:10376000581882421960DDD1106852685A600144CD
:103770001960D7E702D90C232B60D3E72068211802
:103780008A4204BF11685268626004BF0918216050
:103790005C60C7E738BD00BFA400002070B5CD1C39
:1037A00025F0030508350C2D38BF0C25002D0646E5
:1037B00001DBA94203D90C233360002070BD00F067
:1037C00081F8234A1468214691B9224C23681BB919
:1037D000304600F067F820602946304600F062F875
:1037E000431C26D10C233360304600F06CF8E4E72C
:1037F0000B685B1B1AD40B2B0FD90B60CD50CC1868
:10380000304600F060F804F10B00231D20F00700A3
:10381000C31A1BD05A42E25070BD8C420DBF636880
:103820004B686360136018BF0C46E9E70C464968B3
:10383000CAE7C41C24F00304A04205D0211A304674
:1038400000F030F80130CDD02560D9E770BD00BF61
:10385000A4000020A8000020F8B5074614460E4634
:1038600021B91146BDE8F840FFF798BF22B9FFF72C
:1038700047FF25462846F8BD00F026F884420FD9B8
:1038800021463846FFF78AFF05460028F2D0314628
:103890002246FFF70FFF31463846FFF731FFE9E7D1
:1038A0003546E7E738B5064C002305460846236051
:1038B00000F08CF9431C02D1236803B12B6038BDA2
:1038C000240200207047704751F8040C0028A0F132
:1038D0000400BCBF0B58C0187047000010B52DED98
:1038E000028B8AB0B0EE408A00F06EF8314B93F94B
:1038F0000040631C59D0B4EE488AF1EE10FA54D659
:10390000B5EEC08AF1EE10FA4FDC2B4B019318EEA6
:10391000100A00230893FCF71FFECDE90401CDE94E
:10392000020194B9254BB5EE408A4FF06042F1EEAA
:1039300010FACDE9062325D00123022C009316D1DD
:1039400000F03EF92123036016E01D4BB5EE408ADE
:103950000022F1EE10FACDE90623EDD102239C42BC
:10396000009311D100F02CF92223036011E0684686
:1039700000F01CF90028E3D0124800F019F98DED91
:10398000060B06E002230093684600F00FF90028BA
:10399000E8D0089B1BB100F013F9089B0360DDE938
:1039A0000601FDF73FF800EE100A0AB0BDEC028BED
:1039B00010BD00BF780000207F3C0008FFFFEFC76C
:1039C0000000F0FF513C000810EE103A33F00042C6
:1039D00006D1DFED677A9FED677A87EE270A704799
:1039E000002B04DA30EE407ADFED617AF5E7B3F1CF
:1039F000FF4F02DB30EE000A7047B3F5000FBFBF88
:103A0000DFED5D7A60EE277A6FF0180117EE903ADD
:103A10004FEAE352A8BF00217F3A0A445749C3F353
:103A20001603194401F4000102EBD15281F07E51DA
:103A3000194307EE901A03F10F01C1F31601B7EE17
:103A4000000A0F2937EEC00A31DCB5EE400AF1EE6C
:103A500010FA0FD1002A00F0878007EE902A9FED20
:103A6000480A9FED487AF8EEE77A27EE800AA7EE3B
:103A7000870A7047DFED447AB6EE007AA0EE677AE7
:103A800060EE007A27EE277A12B930EE470A7047C7
:103A900007EE902ADFED3A6AF8EEE77AA7EEE67ACB
:103AA00037EE400A9FED377A97EE870A7047F0EEBF
:103AB000007A70EE277A9FED355A3549C0EE276AB5
:103AC0001944C3F5571303F522730B43002B07EE7C
:103AD000902A26EEA66AF8EEE75A26EE067ADFED81
:103AE0002D7AE7EE057A9FED2C5AA7EE275ADFEDE7
:103AF0002B7AE7EE057A9FED2A5A67EE867A9FEDDC
:103B0000296AA7EE065A9FED286AA7EE056AE7EE36
:103B1000067A1ADDB6EE007A20EE077A27EE007AF2
:103B200077EE877A12B9A6EEE77AAEE79FED146AD0
:103B300025EE866AA6EEA76A37EE467A37EE400A89
:103B4000DFED107A95EEA70A704770EE677A12B92A
:103B5000A6EEE70A70479FED0A7A27EE657AA6EE91
:103B6000A77A37EE400AEBE79FED010A704700BFE6
:103B700000000000000000CC0000004C20FB4A00C8
:103B8000D1F717378071313FABAAAA3E9788173E0D
:103B9000305CCFFF25333A3E2549923EABAA2A3FFF
:103BA000298E633E4FD01C3ECDCCCC3E00207047CA
:103BB0009FED010B704700BF000000000000F87F80
:103BC000014B1868704700BF14000020044B1968AF
:103BD000024609B903491960186802441A6070471F
:103BE000AC00002028020020F8B500BFF8BC08BCDB
:103BF0009E467047F8B500BFF8BC08BC9E467047AB
:103C00002E2E5C5372635C6D61696E2E6300000042
:103C1000476F6464616721203A29000044485431A9
:103C2000313A2564207C2074656D703A2564200A41
:103C30000D0000000000000000000000010203046D
:103C4000060708090000000001020304232D302BA1
:103C50002000686C4C00656667454647003031328D
:103C600033343536373839414243444546003031E4
:103C70003233343536373839616263646566006CD7
:043C80006F67660004
:083C840070CEFF7F010000007B
:043C8C00C501000866
:043C9000A101000886
:103C940001000000100000001027141002000000B2
:103CA4000024F400180000200000000000000000C0
:103CB4000000000000000000000000000000000000
:103CC40000000000000000000000000000000000F0
:103CD40000000000000000000000000000000000E0
:103CE40000000000000000000000000000000000D0
:103CF40000000000000000000000000000000000C0
:0C3D0400000000000000000001000000B2
:0400000508003005BA
:00000001FF
